:020000023000CC
:10E000000D9489F10D94B2F10D94B2F10D94B2F129
:10E010000D94B2F10D94B2F10D94B2F10D94B2F1F0
:10E020000D94B2F10D94B2F10D94B2F10D94B2F1E0
:10E030000D94B2F10D94B2F10D94B2F10D94B2F1D0
:10E040000D94B2F10D94B2F10D94B2F10D94B2F1C0
:10E050000D94B2F10D94B2F10D94B2F10D94B2F1B0
:10E060000D94B2F10D94B2F10D94B2F10D94B2F1A0
:10E070000D94B2F10D94B2F10D94B2F10D94B2F190
:10E080000D94B2F10D94B2F10D94B2F10D94B2F180
:10E090000D94B2F10D94B2F10D94B2F10D94B2F170
:10E0A0000D94B2F10D94B2F10D94B2F10D94B2F160
:10E0B0000D94B2F10D94B2F10D94B2F10D94B2F150
:10E0C0000D94B2F10D94B2F10D94B2F10D94B2F140
:10E0D0000D94B2F10D94B2F10D94B2F10D94B2F130
:10E0E0000D94B2F12A00593D506F727420626C6930
:10E0F0006E6B00563D73686F7720696E746572723F
:10E1000075707420566563746F727300523D447568
:10E110006D702052414D00513D51756974004C3D68
:10E120004C69737420492F4F20506F7274730048EC
:10E130003D48656C7000463D44756D7020464C410D
:10E14000534800453D44756D7020454550524F4D34
:10E1500000423D426C696E6B204C454400403D4599
:10E160004550524F4D2074657374003F3D435055E8
:10E1700020737461747300303D5A65726F2061645E
:10E18000647200504F5254004545206572722063FE
:10E190006E743D0052656164696E672045450057A5
:10E1A00072697474696E672045450020004D75736F
:10E1B000742062652061206C657474657200506F14
:10E1C0007274206E6F7420737570706F72746564F2
:10E1D000005768617420706F72743A006A6D702025
:10E1E00000726A6D702020006E6F20766563746F18
:10E1F00072005623202020414444522020206F707A
:10E2000020636F64652020202020696E737472750E
:10E210006374696F6E2061646472202020496E749B
:10E2200065727275707400342E372E3100312E38BD
:10E230002E30004F63742020322032303135004CB4
:10E240006F636B20667573652020203D2000457844
:10E25000742066757365202020203D200048696782
:10E260006820667573652020203D20004C6F772064
:10E2700066757365202020203D20004350552049BD
:10E28000442020202020203D200047434320566585
:10E290007273696F6E203D2000415652204C6962B6
:10E2A00043205665723D20005F5F4156525F4152E8
:10E2B00043485F5F3D2000435055205479706520EE
:10E2C0002020203D2000436F6D70696C6564206FD5
:10E2D0006E203D20004875683F00426F6F746C6F80
:10E2E000616465723E0041726475696E6F20657885
:10E2F000706C6F7265722073746B353030563220DB
:10E300006279204D4C530041546D6567613235365A
:10E31000300011241FBECFEFD1E2DEBFCDBF01E040
:10E320000CBF12E0A0E0B2E0E0E6F9EF03E00BBFC3
:10E3300002C007900D92A430B107D9F712E0A4E013
:10E34000B2E001C01D92A231B107E1F70F9415F3BD
:10E350000D94AEFC01E20EBF0FEF0DBF11241FBEE6
:10E360000D9415F30D9400F08093C6008091C000C9
:10E3700086FFFCCF8091C00080648093C000089528
:10E3800020E030E040ED57E005C0FA013197F1F7A9
:10E390002F5F3F4F28173907C1F70895EF92FF927B
:10E3A0007C01E60EF11CA70160E070E06BBFFA0192
:10E3B0008791882331F09FEFE91AF90A0F94B4F19D
:10E3C000F2CFFF90EF9008958DE00F94B4F18AE0C2
:10E3D0000D94B4F10F94CEF10D94E4F1EF92FF920D
:10E3E0007C01F70181917F01882319F00F94B4F12A
:10E3F000F8CFFF90EF900895CF93C82F82958F703C
:10E40000982F905D9A3308F0995F892F0F94B4F19B
:10E41000CF708C2F805D8A3308F0895FCF910D9487
:10E42000B4F1CF92DF92EF92FF927C016B0185E60F
:10E43000E816F1041CF4633071054CF0C70164E682
:10E4400070E00F944EFC862F805D0F94B4F18BE04A
:10E45000E816F10424F482E0C816D1046CF0C70178
:10E4600064E670E00F944EFC6AE070E00F944EFC9E
:10E47000862F805D0F94B4F1C7016AE070E00F94BD
:10E480004EFC805DFF90EF90DF90CF900D94B4F143
:10E490008091C00087FFFCCF8091C6000895CF9384
:10E4A000C82F60E083E891EE0F94CEF18C2F0F948B
:10E4B000B4F1CF910D94E4F16F927F928F929F927D
:10E4C000AF92BF92CF92DF92EF92FF920F931F9382
:10E4D000CF93DF93CDB7DEB766970FB6F894DEBF64
:10E4E0000FBECDBF782E00E110E06E0181E1C80EB5
:10E4F000D11C9EE2692E41305105E1E06E077105A5
:10E5000058F0862F4B8B5C8B6D8B7E8B0F94FCF1C0
:10E510007E896D895C894B89852F4B8B5C8B6D8BDC
:10E520007E8B0F94FCF14B89842F0F94FCF180E2D9
:10E530000F94B4F18DE20F94B4F180E20F94B4F132
:10E540001982EE24E394F12CEC0EFD1E4B895C89BC
:10E550006D897E894A015B01F1E07F1651F07F16DB
:10E5600020F082E0781214C011C0ABBEF401179104
:10E570000FC0C4014B8B5C8B6D8B7E8B0F9498FC12
:10E58000182F4B895C896D897E8902C0F401108146
:10E59000812F4B8B5C8B6D8B7E8B0F94FCF180E21B
:10E5A0000F94B4F1812F80524B895C896D897E89EB
:10E5B000F7018F3510F4108301C06082FFEF8F1ACE
:10E5C0009F0AAF0ABF0A8FEFE81AF80AEC14FD049D
:10E5D00009F0C2CF405F5F4F6F4F7F4F198ACE0166
:10E5E00001964B8B5C8B6D8B7E8B0F94EEF10F94B1
:10E5F000E4F101504B895C896D897E8901117BCFE3
:10E6000066960FB6F894DEBF0FBECDBFDF91CF91F7
:10E610001F910F91FF90EF90DF90CF90BF90AF9040
:10E620009F908F907F906F900895CF93DF93CDB799
:10E63000DEB7CD53D1400FB6F894DEBF0FBECDBFCD
:10E6400001E20EBF0FEF0DBF94B7F894A89514BE6A
:10E6500080916000886180936000109260007894DF
:10E6600093FF05C0E0910402F091050219959A9A72
:10E67000A29A8091C00082608093C00080E1809364
:10E68000C40088E18093C1000000812C912C5401CA
:10E6900064E0462E512C77ECC72E7BE1D72EE12C7F
:10E6A000F12CE4E07E2E2AC0C2010197F1F73FEF82
:10E6B000831A930AA30AB30A01E010E041E2841628
:10E6C0004EE49406A104B10410F400E010E0C5018A
:10E6D000B401A70196010F9462FC672B682B692B8C
:10E6E00019F484B3872584BB8091C00087FD03C0E3
:10E6F00001151105C9F20F5F1F4F19F400E010E07A
:10E70000F3CF0130110511F00D942FFC0D94FDFB9A
:10E7100000E010E001301105B9F41DC04F5F5F4FFC
:10E720006F4F7F4F4130A2E15A07AAE76A07710590
:10E7300070F0C85CDE4FE881F981C853D140319652
:10E7400019F0EE27FF27099440E050E0BA0130911C
:10E75000C00037FFE3CF3091C600C55DDE4F488172
:10E760005981CB52D1404F5F5F4FC55DDE4F59831A
:10E770004883CB52D140313209F05BC54A30510554
:10E7800008F057C55FEFE51AF50A63E0E616F104F5
:10E7900009F051C50EC081E20F94B4F171E0471A3F
:10E7A0005108C9F70F94E4F181E0681A710821F467
:10E7B00007C055E0652E712C49E1442E512CEBCF5A
:10E7C00010920E0210920F0210921002109211027B
:10E7D00010920A0210920B0210920C0210920D027B
:10E7E000109206021092070210920802109209027B
:10E7F00060E086EE92EE0F94EAF11FEF09E060E030
:10E800008AED92EE0F94CEF10F9448F2982F803655
:10E8100008F09F75903280F0892FC65CDE4F988398
:10E82000CA53D1400F94B4F180E20F94B4F1C65CA6
:10E83000DE4F9881CA53D140983409F4AAC1A8F494
:10E84000923409F43FC150F4903309F108F4EBC459
:10E850009F3399F1903409F0E6C4B4C0953409F4BB
:10E860004AC1963409F0DFC470C1923509F406C27A
:10E8700038F49C3409F4CDC1913509F0D4C4F0C109
:10E88000963509F41FC2993509F0CDC4C7C362E0BB
:10E8900087E791EE0F94EAF110920A0210920B02B0
:10E8A00010920C0210920D0210920E0210920F02A2
:10E8B0001092100210921102FCC062E08BE691EE01
:10E8C0000F94EAF160E086EE92EE0F94EAF160E0D8
:10E8D00086EC92EE0F94CEF160E083E392EE0F941B
:10E8E000EAF160E087EB92EE0F94CEF160E087E012
:10E8F00093EE0F94EAF160E088EA92EE0F94CEF185
:10E9000086E30F94B4F10F94E4F160E08AE892EEAC
:10E910000F94CEF160E087E292EE0F94EAF160E0AE
:10E9200089E992EE0F94CEF160E08DE292EE0F94C1
:10E93000EAF160E08BE792EE0F94CEF18EE10F9456
:10E94000FCF188E90F94FCF181E00F94FCF10F9445
:10E95000E4F160E08CE692EE0F94CEF1E0E0F0E0BE
:10E960000093570084910F94FCF10F94E4F160E060
:10E970008DE592EE0F94CEF1E3E0F0E000935700C6
:10E9800084910F94FCF10F94E4F160E08EE492EE38
:10E990000F94CEF1E2E0F0E00093570084910F94E1
:10E9A000FCF10F94E4F160E08FE392EE0F94CEF16E
:10E9B000E1E0F0E00093570084910F94FCF10F9494
:10E9C000E4F11DCF62E08DE591EE0F94EAF160E095
:10E9D0008FE991EE0F94EAF10F94E4F1612C712C20
:10E9E00012C06F2DC3010F94A0FCF11006C060E0AF
:10E9F0008BEA91EE0F94CEF103C08F2D0F94B4F1FA
:10EA0000FFEF6F1A7F0AA3014A515D4160E070E099
:10EA10006BBFFA01F7903AE2F31621F0611442E07D
:10EA20007406F9F60F94E4F10F94E4F160E084E9E0
:10EA300091EE0F94EAF10F94E4F1412C512C612CEA
:10EA4000712C16C0C3010F9498FC382E811106C09A
:10EA500060E08BEA91EE0F94CEF102C00F94B4F116
:10EA60003F1419F05FEF451A550A6FEF661A760AE0
:10EA7000A3014A515D4160E070E06BBFFA01F7907D
:10EA80007AE2F71621F0611482E07806D9F60F9445
:10EA9000E4F10F94E4F160E088E891EE0F94CEF198
:10EAA00061E070E0C2010F9411F20F94E4F10F9451
:10EAB000E4F11092060210920702109208021092DE
:10EAC00009029DCE62E081E591EE0F94EAF19A9AF7
:10EAD000A29A0AC0A29884E690E00F94C0F1A29A8C
:10EAE00084E690E00F94C0F18091C00087FFF2CFE0
:10EAF0000F9448F284CE62E083E491EE0F94EAF141
:10EB0000409106025091070260910802709109023B
:10EB100081E00F945CF240910602509107026091EF
:10EB20000802709109025F5F6F4F7F4F40930602AA
:10EB300050930702609308027093090241155041F7
:10EB40006105710508F45BCEB4CF62E086E391EE17
:10EB50000F94EAF140910A0250910B0260910C026D
:10EB600070910D0280E00F945CF280910A02909106
:10EB70000B02A0910C02B0910D029F5FAF4FBF4FEF
:10EB800080930A0290930B02A0930C02B0930D02A3
:10EB900036CE62E08FE291EE0F94EAF160E087E713
:10EBA00091EE0F94EAF160E08BE691EE0F94EAF1BA
:10EBB00060E08DE591EE0F94EAF160E081E591EE81
:10EBC0000F94EAF160E083E491EE0F94EAF160E0E3
:10EBD00086E391EE0F94EAF160E08FE291EE0F94FC
:10EBE000EAF160E08EE191EE0F94EAF160E087E1F6
:10EBF00091EE0F94EAF160E08CE091EE0F94EAF16F
:10EC000060E083EF90EE0F94EAF160E086EE90EE24
:10EC10000DC362E08EE191EE0F94EAF181E40F946E
:10EC20004FF282E40F944FF283E40F944FF284E4A6
:10EC30000F944FF285E40F944FF286E40F944FF255
:10EC400087E40F944FF288E40F944FF28AE40F9414
:10EC50004FF28BE40F944FF28CE40F944FF2CFCD30
:10EC600062E087E191EE0F94EAF1E12CF12C31E0C2
:10EC7000C25EDE4F3883CE51D14033C362E08CE0B8
:10EC800091EE0F94EAF140910E0250910F026091C3
:10EC900010027091110282E00F945CF280910E02DA
:10ECA00090910F02A0911002B09111029F5FAF4F9F
:10ECB000BF4F80930E0290930F02A0931002B09367
:10ECC00011029DCD62E083EF90EE0F94EAF160E0D7
:10ECD00087E093EE0F94EAF160E082EF91EE0F94FB
:10ECE000EAF1E12CF12CC25EDE4F188219821A8201
:10ECF0001B82CE51D140C25EDE4F488159816A816C
:10ED00007B81CE51D1407695679557954795C25DE9
:10ED1000DE4F488359836A837B83CE52D1405FEFB5
:10ED2000E51AF50A62E070E0C7010F9411F280E283
:10ED30000F94B4F18DE20F94B4F180E20F94B4F12A
:10ED400080E00F94FCF1C25DDE4F8881CE52D1404D
:10ED50000F94FCF180E20F94B4F18DE30F94B4F1C1
:10ED600080E20F94B4F1C25EDE4F488159816A811E
:10ED70007B81CE51D1406BBFFA0127914F5F5F4F2E
:10ED80006F4F7F4F6BBFFA014791C25EDE4F4880E5
:10ED900059806A807B80CE51D14053E0450E511C92
:10EDA000611C711CC25EDE4F88819981AA81BB8182
:10EDB000CE51D1400296A11DB11DABBFFC013790D1
:10EDC000C25EDE4F688179818A819B81CE51D140BC
:10EDD0006C5F7F4F8F4F9F4FC25EDE4F688379839A
:10EDE0008A839B83CE51D1406BBEF2012790842F42
:10EDF00090E0A0E0B0E04424582E692E7A2E420E16
:10EE0000511C611C711C842FC35CDE4F2883CD53C1
:10EE1000D140C45CDE4F4883CC53D1400F94FCF109
:10EE200080E20F94B4F1C35CDE4F2881CD53D14012
:10EE3000822F0F94FCF180E20F94B4F1822D0F9495
:10EE4000FCF180E20F94B4F1832D0F94FCF180E289
:10EE50000F94B4F1C35CDE4F2881CD53D140C45C24
:10EE6000DE4F4881CC53D1407FEF471657066104EF
:10EE7000710431F460E088EE91EE0F94CEF1C6C0DB
:10EE8000D301C2018827907CAA27BB278115904C0B
:10EE9000A105B10509F040C0B301A2015F73662767
:10EEA0007727CE5DDE4F488359836A837B83C252C6
:10EEB000D1402A013B01C25DDE4F488159816A8100
:10EEC0007B81CE52D140440E551E661E771E440CE7
:10EED000551C661C771C60E081EE91EE0F94CEF11C
:10EEE000CD5DDE4F8881C352D1400F94FCF1CE5DE1
:10EEF000DE4F8881C252D1400F94FCF180E20F9422
:10EF0000B4F18EE30F94B4F1862D0F94FCF1852DAE
:10EF10000F94FCF1842D78C0D301C2018E709E7FC6
:10EF2000AA27BB278C309449A105B10509F06EC012
:10EF3000422C512C612C712C762C652C542C4424A1
:10EF4000430C511C611C711C822F817090E0A0E069
:10EF5000B0E0DC0199278827480E591E6A1E7B1EE7
:10EF6000822F807F90E0A0E0B0E061E1880F991FE0
:10EF7000AA1FBB1F6A95D1F7480E591E6A1E7B1E39
:10EF8000417050E060E070E0E5E1440F551F661FFE
:10EF9000771FEA95D1F7440E551E661E771EB30102
:10EFA000A201440F551F661F771FCE5DDE4F4883B9
:10EFB00059836A837B83C252D14060E08CED91EE2D
:10EFC0000F94CEF1862D0F94FCF1852D0F94FCF15A
:10EFD000842D0F94FCF180E20F94B4F18EE30F9432
:10EFE000B4F1CC5DDE4F8881C452D1400F94FCF166
:10EFF000CD5DDE4F8881C352D1400F94FCF1CE5DD0
:10F00000DE4F8881C252D1400F94FCF10F94E4F19D
:10F0100059E3E516F10409F06ECEF1CB62E086EE1D
:10F0200090EE0F94EAF160E081ED91EE0F94CEF155
:10F030000F9448F2982F9F75892FC65CDE4F9883F6
:10F04000CA53D1400F94B4F10F94E4F1C65CDE4F83
:10F050009881CA53D140892F81548A3108F0DFC08A
:10F06000963409F46EC080F49334F1F130F49134A5
:10F07000E9F0923409F0CFC028C0943409F443C0B9
:10F08000953409F0C8C04EC09A3409F48BC038F4E6
:10F09000973409F465C0983409F0BDC070C09B3442
:10F0A00009F493C09C3409F0B6C0A2C011B907C0DE
:10F0B00082B1809582B988EC90E00F94C0F1809184
:10F0C000C00087FFF5CF12B813CD14B907C085B1C2
:10F0D000809585B988EC90E00F94C0F18091C000D4
:10F0E00087FFF5CF15B804CD17B907C088B1809553
:10F0F00088B988EC90E00F94C0F18091C00087FF40
:10F10000F5CF18B8F5CC1AB907C08BB180958BB97B
:10F1100088EC90E00F94C0F18091C00087FFF5CF9C
:10F120001BB8E6CC1DB907C08EB180958EB988ECAE
:10F1300090E00F94C0F18091C00087FFF5CF1EB81A
:10F14000D7CC10BB07C081B3809581BB88EC90E021
:10F150000F94C0F18091C00087FFF5CF11BAC8CCE1
:10F1600013BB07C084B3809584BB88EC90E00F94F8
:10F17000C0F18091C00087FFF5CF14BAB9CC1093CD
:10F18000010109C08091020180958093020188EC01
:10F1900090E00F94C0F18091C00087FFF3CF1092F0
:10F1A0000201A6CC1093040109C08091050180954D
:10F1B0008093050188EC90E00F94C0F18091C0002D
:10F1C00087FFF3CF1092050193CC1093070109C07C
:10F1D0008091080180958093080188EC90E00F945D
:10F1E000C0F18091C00087FFF3CF1092080180CC5E
:10F1F00010930A0109C080910B01809580930B0147
:10F2000088EC90E00F94C0F18091C00087FFF3CFAD
:10F2100010920B016DCC60E08EEB91EE07C060E0C8
:10F220008DEA91EE03C060E085ED92EE0F94EAF175
:10F23000E6CAE12CF12C233069F120F42130E9F009
:10F2400020F507C0253091F148F1263009F041C082
:10F250003DC03B3109F417C3C35DDE4F3881CD5249
:10F26000D1403F5FC35DDE4F3883CD52D1403B304C
:10F2700008F44ECA81E189832FC07326C65DDE4F34
:10F280003883CA52D14022E043CA932F80E07326CC
:10F2900023E03ECA832B732624E03ACA3E3009F0AD
:10F2A000F7C27326C12CD12C25E032CAE1E0F0E090
:10F2B000EC0FFD1FEC0DFD1D30834FEFC41AD40A77
:10F2C0007326C816D90609F023CAE5C2371521F0FE
:10F2D000DFC2273009F01CCAC25EDE4F1882CE5151
:10F2E000D1408981833109F4E1C0B8F4863009F452
:10F2F000CAC050F4823009F4D7C0833009F464C026
:10F30000813009F006C24AC0813109F46AC008F0B0
:10F31000ADC0803109F0FDC1C7C0883109F481C09A
:10F3200048F4853109F4C2C008F494C1863109F06B
:10F33000F0C190C18A3109F468C008F486C08B31ED
:10F3400009F456C08D3109F0E4C18D81803339F460
:10F350009F819923A9F09130A9F4E8E916C0982F6C
:10F36000907591F0803519F4E0E0F0E004C0883544
:10F3700059F4E3E0F0E099E090935700E49105C080
:10F38000EEE103C0E1E001C0E0E01A821B828C8361
:10F390001D82EE831F8227E030E0BFC11A8288E021
:10F3A0008B8381E48C8386E58D8382E58E8389E47B
:10F3B0008F8383E5888780E589878FE58A8782E365
:10F3C0008B872BE030E0A9C1EA81E059E33028F4D3
:10F3D000F0E0E050FE4F808101C080E01A828B8314
:10F3E00042C051E0C25EDE4F5883CE51D1405CC076
:10F3F0008D81882321F0813021F488E903C08EE1DA
:10F4000001C081E01A828B8308C01A82E1E0F0E03B
:10F4100089E080935700E491EB831C8224E030E084
:10F420007CC18B81803549F48C81883019F4E2E00D
:10F43000F0E005C0E0E0F0E002C0E3E0F0E089E0E9
:10F4400080935700E4911A82E7CF8D81836C99E015
:10F45000E1E0F0E0082E90935700E89507B600FC35
:10F46000FDCF1A821B8223E030E057C180EC8A83F3
:10F4700022E030E0CA5DDE4F188219821A821B82B8
:10F48000C652D1404AC18A818B80912CA12CB12CCB
:10F49000540199248824B82A8D81882A8C81982A3D
:10F4A000880C991CAA1CBB1C1A8235C16A81CD5CD0
:10F4B000DE4F6883C353D140CE5CDE4F1882C25307
:10F4C000D1409B81CE5CDE4F28813981C253D1402F
:10F4D000292B833109F06EC0CA5DDE4F8881998186
:10F4E000AA81BB81C652D1408115904CA340B10581
:10F4F00028F583E0CA5DDE4F488159816A817B81AE
:10F50000C652D140FA0160935B0080935700E895A2
:10F5100007B600FCFDCFCA5DDE4F688179818A8124
:10F520009B81C652D1407F5F8F4F9F4FCA5DDE4F98
:10F53000688379838A839B83C652D1408B85DE01A1
:10F540001D96B501A40111E0FD0131979081CB5CBE
:10F55000DE4F9883C553D140CC5CDE4F1882C45334
:10F56000D140CC5CDE4FE881F981C453D140E82B17
:10F57000CF010C01FA0160935B0010935700E895EE
:10F5800011244E5F5F4F6F4F7F4F2250310919F0AA
:10F590008C911296D9CF85E0F401A0925B00809304
:10F5A0005700E89507B600FCFDCF81E18093570036
:10F5B000E8954CC02401350176946794579447949C
:10F5C00040E050E01E01FBE02F0E311C32C0D101A3
:10F5D0006D911D01CA01840D951DC35CDE4F28830A
:10F5E000CD53D140C55CDE4F3883CB53D140C45C92
:10F5F000DE4F4883CC53D140C65CDE4F5883CA539C
:10F60000D1400F94A0FCC45CDE4F4881CC53D14064
:10F61000C65CDE4F5881CA53D1404F5F5F4FC55C17
:10F62000DE4F3881CB53D140C35CDE4F2881CD53B0
:10F63000D1404217530759F660E070E0440F551F60
:10F64000661F771F480D591D6A1D7B1D1A824A01CE
:10F650005B0161C0BA81C95CDE4FB883C753D1403A
:10F66000CA5CDE4F1882C653D1409B81CA5CDE4F14
:10F6700008811981C653D140092B98012D5F3F4F56
:10F680001A828431C1F4CE010496DE011396ABBE1A
:10F69000F401479156914C93FC0150831296F2E08D
:10F6A0008F0E911CA11CB11C02501109029601156C
:10F6B000110569F72CC0F801B501A401B3E06B2E68
:10F6C000712C6C0E7D1E41BDBB27A72F962F852F59
:10F6D00082BD4F5F5F4F6F4F7F4FF89A80B5D30168
:10F6E0008D933D01319779F7A8014150510960E0B0
:10F6F00070E04F5F5F4F6F4F7F4F840E951EA61EC9
:10F70000B71EA3E0B0E0AC0FBD1FA00FB11F1C924D
:10F7100004C080EC8A8322E030E08BE1C35CDE4FE2
:10F720002883CD53D140C55CDE4F3883CB53D140C5
:10F730000F94B4F1C65DDE4F8881CA52D1400F9458
:10F74000B4F1C55CDE4F3881CB53D140132F832FEA
:10F750000F94B4F1C35CDE4F2881CD53D140022F0A
:10F76000822F0F94B4F18EE00F94B4F135E1732E33
:10F77000C65DDE4FB881CA52D1407B267026712605
:10F78000C35CDE4F2881CD53D140C55CDE4F38814C
:10F79000CB53D14044244394512C4C0E5D1E420E59
:10F7A000531E22242394312C2C0E3D1E07C0F10140
:10F7B00011911F01812F0F94B4F171262414350487
:10F7C000B1F7872D0F94B4F1C65DDE4F3881CA5270
:10F7D000D1403F5FC65DDE4F3883CA52D14084B30B
:10F7E00044E0842784BB00E010E0C25EDE4F588115
:10F7F000CE51D140552371F132C0C55DDE4F198223
:10F800001882CB52D140E12CF12CC35DDE4F18821F
:10F81000CD52D140C65DDE4F1882CA52D140712C04
:10F82000C12CD12CCA5DDE4F188219821A821B822C
:10F83000C652D140812C912C540160E070E0CB0184
:10F840008BBFFB0187919691C85CDE4F99838883BB
:10F85000C853D14080E090E020E00D948AF39A985C
:10F86000A29884E690E00F94C0F100008091C0005F
:10F870008D7F8093C00081E180935700E895EE274B
:10F88000FF270994FFCF2BE1722E21E00D9488F31E
:10F8900020E00D9488F326E00D9488F397FB072E63
:10F8A00016F4009407D077FD09D00F9484FC07FC70
:10F8B00005D03EF4909581959F4F08957095619580
:10F8C0007F4F0895A1E21A2EAA1BBB1BFD010DC09C
:10F8D000AA1FBB1FEE1FFF1FA217B307E407F50700
:10F8E00020F0A21BB30BE40BF50B661F771F881FDC
:10F8F000991F1A9469F760957095809590959B0172
:10F90000AC01BD01CF010895AA1BBB1B51E107C08B
:10F91000AA1FBB1FA617B70710F0A61BB70B881F9F
:10F92000991F5A95A9F780959095BC01CD0108952E
:10F93000F999FECF92BD81BDF89A992780B50895B7
:10F94000262FF999FECF1FBA92BD81BD20BD0FB6FB
:10F95000F894FA9AF99A0FBE01960895F894FFCF99
:04F960000F020A0088
:040000033000E000E9
:00000001FF
